{
  "contractName": "ChainRideContract",
  "abi": [
    {
      "anonymous": false,
      "inputs": [
        {
          "indexed": true,
          "internalType": "uint256",
          "name": "clientId",
          "type": "uint256"
        },
        {
          "indexed": true,
          "internalType": "address",
          "name": "walletAddress",
          "type": "address"
        }
      ],
      "name": "ClientRegistered",
      "type": "event"
    },
    {
      "anonymous": false,
      "inputs": [
        {
          "indexed": true,
          "internalType": "uint256",
          "name": "clientId",
          "type": "uint256"
        },
        {
          "indexed": true,
          "internalType": "address",
          "name": "walletAddress",
          "type": "address"
        }
      ],
      "name": "ClientUpdated",
      "type": "event"
    },
    {
      "anonymous": false,
      "inputs": [
        {
          "indexed": true,
          "internalType": "uint256",
          "name": "driverId",
          "type": "uint256"
        },
        {
          "indexed": true,
          "internalType": "address",
          "name": "walletAddress",
          "type": "address"
        }
      ],
      "name": "DriverRegistered",
      "type": "event"
    },
    {
      "anonymous": false,
      "inputs": [
        {
          "indexed": true,
          "internalType": "uint256",
          "name": "driverId",
          "type": "uint256"
        },
        {
          "indexed": true,
          "internalType": "address",
          "name": "walletAddress",
          "type": "address"
        }
      ],
      "name": "DriverUpdated",
      "type": "event"
    },
    {
      "anonymous": false,
      "inputs": [
        {
          "indexed": true,
          "internalType": "uint256",
          "name": "rideId",
          "type": "uint256"
        },
        {
          "indexed": true,
          "internalType": "uint256",
          "name": "clientId",
          "type": "uint256"
        },
        {
          "indexed": false,
          "internalType": "uint256",
          "name": "amount",
          "type": "uint256"
        }
      ],
      "name": "PaymentReceived",
      "type": "event"
    },
    {
      "anonymous": false,
      "inputs": [
        {
          "indexed": false,
          "internalType": "uint256",
          "name": "ratingId",
          "type": "uint256"
        },
        {
          "indexed": false,
          "internalType": "uint256",
          "name": "rideId",
          "type": "uint256"
        },
        {
          "indexed": false,
          "internalType": "uint256",
          "name": "driverId",
          "type": "uint256"
        },
        {
          "indexed": false,
          "internalType": "uint256",
          "name": "clientId",
          "type": "uint256"
        },
        {
          "indexed": false,
          "internalType": "uint8",
          "name": "score",
          "type": "uint8"
        }
      ],
      "name": "RatingSubmitted",
      "type": "event"
    },
    {
      "anonymous": false,
      "inputs": [
        {
          "indexed": true,
          "internalType": "uint256",
          "name": "rideId",
          "type": "uint256"
        }
      ],
      "name": "RideCancelled",
      "type": "event"
    },
    {
      "anonymous": false,
      "inputs": [
        {
          "indexed": true,
          "internalType": "uint256",
          "name": "rideId",
          "type": "uint256"
        }
      ],
      "name": "RideCompleted",
      "type": "event"
    },
    {
      "anonymous": false,
      "inputs": [
        {
          "indexed": true,
          "internalType": "uint256",
          "name": "rideId",
          "type": "uint256"
        },
        {
          "indexed": true,
          "internalType": "uint256",
          "name": "clientId",
          "type": "uint256"
        },
        {
          "indexed": false,
          "internalType": "uint256",
          "name": "amount",
          "type": "uint256"
        }
      ],
      "name": "RideConfirmed",
      "type": "event"
    },
    {
      "anonymous": false,
      "inputs": [
        {
          "indexed": true,
          "internalType": "uint256",
          "name": "rideId",
          "type": "uint256"
        },
        {
          "indexed": true,
          "internalType": "uint256",
          "name": "driverId",
          "type": "uint256"
        },
        {
          "indexed": false,
          "internalType": "uint256",
          "name": "price",
          "type": "uint256"
        }
      ],
      "name": "RideCreated",
      "type": "event"
    },
    {
      "anonymous": false,
      "inputs": [
        {
          "indexed": true,
          "internalType": "uint256",
          "name": "rideId",
          "type": "uint256"
        },
        {
          "indexed": true,
          "internalType": "uint256",
          "name": "clientId",
          "type": "uint256"
        }
      ],
      "name": "RideRequestAccepted",
      "type": "event"
    },
    {
      "anonymous": false,
      "inputs": [
        {
          "indexed": true,
          "internalType": "uint256",
          "name": "rideId",
          "type": "uint256"
        },
        {
          "indexed": true,
          "internalType": "uint256",
          "name": "clientId",
          "type": "uint256"
        }
      ],
      "name": "RideRequestRejected",
      "type": "event"
    },
    {
      "anonymous": false,
      "inputs": [
        {
          "indexed": true,
          "internalType": "uint256",
          "name": "rideId",
          "type": "uint256"
        },
        {
          "indexed": true,
          "internalType": "uint256",
          "name": "clientId",
          "type": "uint256"
        },
        {
          "indexed": false,
          "internalType": "uint256",
          "name": "requestId",
          "type": "uint256"
        }
      ],
      "name": "RideRequested",
      "type": "event"
    },
    {
      "anonymous": false,
      "inputs": [
        {
          "indexed": true,
          "internalType": "uint256",
          "name": "rideId",
          "type": "uint256"
        }
      ],
      "name": "RideStarted",
      "type": "event"
    },
    {
      "inputs": [
        {
          "internalType": "uint256",
          "name": "",
          "type": "uint256"
        }
      ],
      "name": "allClientIds",
      "outputs": [
        {
          "internalType": "uint256",
          "name": "",
          "type": "uint256"
        }
      ],
      "stateMutability": "view",
      "type": "function",
      "constant": true
    },
    {
      "inputs": [
        {
          "internalType": "uint256",
          "name": "",
          "type": "uint256"
        }
      ],
      "name": "allDriverIds",
      "outputs": [
        {
          "internalType": "uint256",
          "name": "",
          "type": "uint256"
        }
      ],
      "stateMutability": "view",
      "type": "function",
      "constant": true
    },
    {
      "inputs": [
        {
          "internalType": "uint256",
          "name": "",
          "type": "uint256"
        }
      ],
      "name": "allPassengerIds",
      "outputs": [
        {
          "internalType": "uint256",
          "name": "",
          "type": "uint256"
        }
      ],
      "stateMutability": "view",
      "type": "function",
      "constant": true
    },
    {
      "inputs": [
        {
          "internalType": "uint256",
          "name": "",
          "type": "uint256"
        }
      ],
      "name": "allRideIds",
      "outputs": [
        {
          "internalType": "uint256",
          "name": "",
          "type": "uint256"
        }
      ],
      "stateMutability": "view",
      "type": "function",
      "constant": true
    },
    {
      "inputs": [
        {
          "internalType": "address",
          "name": "",
          "type": "address"
        }
      ],
      "name": "clientAddressToId",
      "outputs": [
        {
          "internalType": "uint256",
          "name": "",
          "type": "uint256"
        }
      ],
      "stateMutability": "view",
      "type": "function",
      "constant": true
    },
    {
      "inputs": [
        {
          "internalType": "uint256",
          "name": "",
          "type": "uint256"
        }
      ],
      "name": "clients",
      "outputs": [
        {
          "internalType": "uint256",
          "name": "id",
          "type": "uint256"
        },
        {
          "internalType": "address",
          "name": "walletAddress",
          "type": "address"
        },
        {
          "internalType": "string",
          "name": "name",
          "type": "string"
        },
        {
          "internalType": "string",
          "name": "email",
          "type": "string"
        },
        {
          "internalType": "string",
          "name": "phone",
          "type": "string"
        },
        {
          "internalType": "bool",
          "name": "isActive",
          "type": "bool"
        },
        {
          "internalType": "uint256",
          "name": "timestamp",
          "type": "uint256"
        }
      ],
      "stateMutability": "view",
      "type": "function",
      "constant": true
    },
    {
      "inputs": [
        {
          "internalType": "address",
          "name": "",
          "type": "address"
        }
      ],
      "name": "driverAddressToId",
      "outputs": [
        {
          "internalType": "uint256",
          "name": "",
          "type": "uint256"
        }
      ],
      "stateMutability": "view",
      "type": "function",
      "constant": true
    },
    {
      "inputs": [
        {
          "internalType": "uint256",
          "name": "",
          "type": "uint256"
        }
      ],
      "name": "drivers",
      "outputs": [
        {
          "internalType": "uint256",
          "name": "id",
          "type": "uint256"
        },
        {
          "internalType": "address",
          "name": "walletAddress",
          "type": "address"
        },
        {
          "internalType": "string",
          "name": "name",
          "type": "string"
        },
        {
          "internalType": "string",
          "name": "email",
          "type": "string"
        },
        {
          "internalType": "string",
          "name": "phone",
          "type": "string"
        },
        {
          "internalType": "string",
          "name": "carModel",
          "type": "string"
        },
        {
          "internalType": "string",
          "name": "licensePlate",
          "type": "string"
        },
        {
          "internalType": "string",
          "name": "carColor",
          "type": "string"
        },
        {
          "internalType": "bool",
          "name": "isActive",
          "type": "bool"
        },
        {
          "internalType": "uint256",
          "name": "timestamp",
          "type": "uint256"
        },
        {
          "internalType": "uint256",
          "name": "completedRides",
          "type": "uint256"
        },
        {
          "internalType": "uint256",
          "name": "activeRides",
          "type": "uint256"
        },
        {
          "internalType": "uint256",
          "name": "totalEarnings",
          "type": "uint256"
        }
      ],
      "stateMutability": "view",
      "type": "function",
      "constant": true
    },
    {
      "inputs": [
        {
          "internalType": "uint256",
          "name": "",
          "type": "uint256"
        }
      ],
      "name": "passengers",
      "outputs": [
        {
          "internalType": "uint256",
          "name": "id",
          "type": "uint256"
        },
        {
          "internalType": "uint256",
          "name": "clientId",
          "type": "uint256"
        },
        {
          "internalType": "address",
          "name": "clientWalletAddress",
          "type": "address"
        },
        {
          "internalType": "string",
          "name": "status",
          "type": "string"
        },
        {
          "internalType": "bool",
          "name": "paid",
          "type": "bool"
        }
      ],
      "stateMutability": "view",
      "type": "function",
      "constant": true
    },
    {
      "inputs": [
        {
          "internalType": "uint256",
          "name": "",
          "type": "uint256"
        }
      ],
      "name": "ratings",
      "outputs": [
        {
          "internalType": "uint256",
          "name": "id",
          "type": "uint256"
        },
        {
          "internalType": "uint256",
          "name": "rideId",
          "type": "uint256"
        },
        {
          "internalType": "uint256",
          "name": "driverId",
          "type": "uint256"
        },
        {
          "internalType": "uint256",
          "name": "clientId",
          "type": "uint256"
        },
        {
          "internalType": "uint8",
          "name": "score",
          "type": "uint8"
        },
        {
          "internalType": "uint256",
          "name": "timestamp",
          "type": "uint256"
        }
      ],
      "stateMutability": "view",
      "type": "function",
      "constant": true
    },
    {
      "inputs": [
        {
          "internalType": "uint256",
          "name": "",
          "type": "uint256"
        }
      ],
      "name": "rideRequests",
      "outputs": [
        {
          "internalType": "uint256",
          "name": "id",
          "type": "uint256"
        },
        {
          "internalType": "uint256",
          "name": "clientId",
          "type": "uint256"
        },
        {
          "internalType": "address",
          "name": "clientWalletAddress",
          "type": "address"
        },
        {
          "internalType": "string",
          "name": "status",
          "type": "string"
        },
        {
          "internalType": "uint256",
          "name": "requestedAt",
          "type": "uint256"
        }
      ],
      "stateMutability": "view",
      "type": "function",
      "constant": true
    },
    {
      "inputs": [
        {
          "internalType": "uint256",
          "name": "",
          "type": "uint256"
        }
      ],
      "name": "rides",
      "outputs": [
        {
          "internalType": "uint256",
          "name": "id",
          "type": "uint256"
        },
        {
          "internalType": "uint256",
          "name": "driverId",
          "type": "uint256"
        },
        {
          "internalType": "address",
          "name": "driverWalletAddress",
          "type": "address"
        },
        {
          "internalType": "string",
          "name": "startLocation",
          "type": "string"
        },
        {
          "internalType": "string",
          "name": "destination",
          "type": "string"
        },
        {
          "internalType": "uint8",
          "name": "availableSeats",
          "type": "uint8"
        },
        {
          "internalType": "uint256",
          "name": "price",
          "type": "uint256"
        },
        {
          "internalType": "string",
          "name": "status",
          "type": "string"
        },
        {
          "internalType": "uint256",
          "name": "createdAt",
          "type": "uint256"
        },
        {
          "internalType": "uint256",
          "name": "departureTime",
          "type": "uint256"
        }
      ],
      "stateMutability": "view",
      "type": "function",
      "constant": true
    },
    {
      "inputs": [
        {
          "internalType": "string",
          "name": "_name",
          "type": "string"
        },
        {
          "internalType": "string",
          "name": "_email",
          "type": "string"
        },
        {
          "internalType": "string",
          "name": "_phone",
          "type": "string"
        },
        {
          "internalType": "string",
          "name": "_carModel",
          "type": "string"
        },
        {
          "internalType": "string",
          "name": "_licensePlate",
          "type": "string"
        },
        {
          "internalType": "string",
          "name": "_carColor",
          "type": "string"
        }
      ],
      "name": "registerDriver",
      "outputs": [
        {
          "internalType": "uint256",
          "name": "",
          "type": "uint256"
        }
      ],
      "stateMutability": "nonpayable",
      "type": "function"
    },
    {
      "inputs": [
        {
          "internalType": "string",
          "name": "_name",
          "type": "string"
        },
        {
          "internalType": "string",
          "name": "_email",
          "type": "string"
        },
        {
          "internalType": "string",
          "name": "_phone",
          "type": "string"
        },
        {
          "internalType": "string",
          "name": "_carModel",
          "type": "string"
        },
        {
          "internalType": "string",
          "name": "_licensePlate",
          "type": "string"
        },
        {
          "internalType": "string",
          "name": "_carColor",
          "type": "string"
        }
      ],
      "name": "updateDriver",
      "outputs": [
        {
          "internalType": "bool",
          "name": "",
          "type": "bool"
        }
      ],
      "stateMutability": "nonpayable",
      "type": "function"
    },
    {
      "inputs": [
        {
          "internalType": "string",
          "name": "_name",
          "type": "string"
        },
        {
          "internalType": "string",
          "name": "_email",
          "type": "string"
        },
        {
          "internalType": "string",
          "name": "_phone",
          "type": "string"
        }
      ],
      "name": "registerClient",
      "outputs": [
        {
          "internalType": "uint256",
          "name": "",
          "type": "uint256"
        }
      ],
      "stateMutability": "nonpayable",
      "type": "function"
    },
    {
      "inputs": [
        {
          "internalType": "string",
          "name": "_name",
          "type": "string"
        },
        {
          "internalType": "string",
          "name": "_email",
          "type": "string"
        },
        {
          "internalType": "string",
          "name": "_phone",
          "type": "string"
        }
      ],
      "name": "updateClient",
      "outputs": [
        {
          "internalType": "bool",
          "name": "",
          "type": "bool"
        }
      ],
      "stateMutability": "nonpayable",
      "type": "function"
    },
    {
      "inputs": [
        {
          "internalType": "string",
          "name": "_startLocation",
          "type": "string"
        },
        {
          "internalType": "string",
          "name": "_destination",
          "type": "string"
        },
        {
          "internalType": "uint8",
          "name": "_availableSeats",
          "type": "uint8"
        },
        {
          "internalType": "uint256",
          "name": "_price",
          "type": "uint256"
        },
        {
          "internalType": "uint256",
          "name": "_departureTime",
          "type": "uint256"
        }
      ],
      "name": "createRide",
      "outputs": [
        {
          "internalType": "uint256",
          "name": "",
          "type": "uint256"
        }
      ],
      "stateMutability": "nonpayable",
      "type": "function"
    },
    {
      "inputs": [
        {
          "internalType": "uint256",
          "name": "_rideId",
          "type": "uint256"
        }
      ],
      "name": "requestRide",
      "outputs": [
        {
          "internalType": "uint256",
          "name": "",
          "type": "uint256"
        }
      ],
      "stateMutability": "nonpayable",
      "type": "function"
    },
    {
      "inputs": [
        {
          "internalType": "uint256",
          "name": "_rideId",
          "type": "uint256"
        },
        {
          "internalType": "uint256",
          "name": "_requestId",
          "type": "uint256"
        }
      ],
      "name": "acceptRideRequest",
      "outputs": [],
      "stateMutability": "nonpayable",
      "type": "function"
    },
    {
      "inputs": [
        {
          "internalType": "uint256",
          "name": "_rideId",
          "type": "uint256"
        },
        {
          "internalType": "uint256",
          "name": "_requestId",
          "type": "uint256"
        }
      ],
      "name": "rejectRideRequest",
      "outputs": [],
      "stateMutability": "nonpayable",
      "type": "function"
    },
    {
      "inputs": [
        {
          "internalType": "uint256",
          "name": "_rideId",
          "type": "uint256"
        }
      ],
      "name": "startRide",
      "outputs": [],
      "stateMutability": "nonpayable",
      "type": "function"
    },
    {
      "inputs": [
        {
          "internalType": "uint256",
          "name": "_rideId",
          "type": "uint256"
        }
      ],
      "name": "completeRide",
      "outputs": [],
      "stateMutability": "nonpayable",
      "type": "function"
    },
    {
      "inputs": [
        {
          "internalType": "uint256",
          "name": "_rideId",
          "type": "uint256"
        }
      ],
      "name": "confirmRide",
      "outputs": [],
      "stateMutability": "payable",
      "type": "function",
      "payable": true
    },
    {
      "inputs": [
        {
          "internalType": "uint256",
          "name": "_rideId",
          "type": "uint256"
        }
      ],
      "name": "getRideDetails",
      "outputs": [
        {
          "components": [
            {
              "internalType": "uint256",
              "name": "id",
              "type": "uint256"
            },
            {
              "internalType": "uint256",
              "name": "driverId",
              "type": "uint256"
            },
            {
              "internalType": "address",
              "name": "driverWalletAddress",
              "type": "address"
            },
            {
              "internalType": "string",
              "name": "startLocation",
              "type": "string"
            },
            {
              "internalType": "string",
              "name": "destination",
              "type": "string"
            },
            {
              "internalType": "uint8",
              "name": "availableSeats",
              "type": "uint8"
            },
            {
              "internalType": "uint256",
              "name": "price",
              "type": "uint256"
            },
            {
              "internalType": "string",
              "name": "status",
              "type": "string"
            },
            {
              "internalType": "uint256",
              "name": "createdAt",
              "type": "uint256"
            },
            {
              "internalType": "uint256",
              "name": "departureTime",
              "type": "uint256"
            },
            {
              "internalType": "uint256[]",
              "name": "passengerIds",
              "type": "uint256[]"
            },
            {
              "internalType": "uint256[]",
              "name": "requestIds",
              "type": "uint256[]"
            }
          ],
          "internalType": "struct ChainRideContract.RideDetails",
          "name": "",
          "type": "tuple"
        }
      ],
      "stateMutability": "view",
      "type": "function",
      "constant": true
    },
    {
      "inputs": [
        {
          "internalType": "uint256",
          "name": "_rideId",
          "type": "uint256"
        }
      ],
      "name": "cancelRide",
      "outputs": [],
      "stateMutability": "nonpayable",
      "type": "function"
    },
    {
      "inputs": [],
      "name": "getActiveRides",
      "outputs": [
        {
          "internalType": "uint256[]",
          "name": "",
          "type": "uint256[]"
        }
      ],
      "stateMutability": "view",
      "type": "function",
      "constant": true
    },
    {
      "inputs": [
        {
          "internalType": "uint256",
          "name": "_driverId",
          "type": "uint256"
        }
      ],
      "name": "getDriverRides",
      "outputs": [
        {
          "internalType": "uint256[]",
          "name": "",
          "type": "uint256[]"
        }
      ],
      "stateMutability": "view",
      "type": "function",
      "constant": true
    },
    {
      "inputs": [
        {
          "internalType": "uint256",
          "name": "_rideId",
          "type": "uint256"
        }
      ],
      "name": "getRideRequests",
      "outputs": [
        {
          "internalType": "uint256[]",
          "name": "",
          "type": "uint256[]"
        }
      ],
      "stateMutability": "view",
      "type": "function",
      "constant": true
    },
    {
      "inputs": [
        {
          "internalType": "uint256",
          "name": "_rideId",
          "type": "uint256"
        }
      ],
      "name": "getRidePassengers",
      "outputs": [
        {
          "internalType": "uint256[]",
          "name": "",
          "type": "uint256[]"
        }
      ],
      "stateMutability": "view",
      "type": "function",
      "constant": true
    },
    {
      "inputs": [
        {
          "internalType": "uint256",
          "name": "_clientId",
          "type": "uint256"
        }
      ],
      "name": "getClientRides",
      "outputs": [
        {
          "internalType": "uint256[]",
          "name": "",
          "type": "uint256[]"
        }
      ],
      "stateMutability": "view",
      "type": "function",
      "constant": true
    },
    {
      "inputs": [],
      "name": "getTotalDrivers",
      "outputs": [
        {
          "internalType": "uint256",
          "name": "",
          "type": "uint256"
        }
      ],
      "stateMutability": "view",
      "type": "function",
      "constant": true
    },
    {
      "inputs": [],
      "name": "getTotalClients",
      "outputs": [
        {
          "internalType": "uint256",
          "name": "",
          "type": "uint256"
        }
      ],
      "stateMutability": "view",
      "type": "function",
      "constant": true
    },
    {
      "inputs": [
        {
          "internalType": "uint256",
          "name": "_rideId",
          "type": "uint256"
        },
        {
          "internalType": "uint8",
          "name": "_score",
          "type": "uint8"
        }
      ],
      "name": "rateDriver",
      "outputs": [],
      "stateMutability": "nonpayable",
      "type": "function"
    },
    {
      "inputs": [
        {
          "internalType": "uint256",
          "name": "_driverId",
          "type": "uint256"
        }
      ],
      "name": "getDriverRating",
      "outputs": [
        {
          "internalType": "uint256",
          "name": "",
          "type": "uint256"
        },
        {
          "internalType": "uint256",
          "name": "",
          "type": "uint256"
        }
      ],
      "stateMutability": "view",
      "type": "function",
      "constant": true
    },
    {
      "inputs": [
        {
          "internalType": "uint256",
          "name": "_driverId",
          "type": "uint256"
        }
      ],
      "name": "getDriverRatings",
      "outputs": [
        {
          "internalType": "uint256[]",
          "name": "",
          "type": "uint256[]"
        }
      ],
      "stateMutability": "view",
      "type": "function",
      "constant": true
    },
    {
      "inputs": [
        {
          "internalType": "uint256",
          "name": "_rideId",
          "type": "uint256"
        }
      ],
      "name": "getRideRatings",
      "outputs": [
        {
          "internalType": "uint256[]",
          "name": "",
          "type": "uint256[]"
        }
      ],
      "stateMutability": "view",
      "type": "function",
      "constant": true
    },
    {
      "inputs": [
        {
          "internalType": "uint256",
          "name": "_driverId",
          "type": "uint256"
        }
      ],
      "name": "getDriverStats",
      "outputs": [
        {
          "internalType": "uint256",
          "name": "completedRides",
          "type": "uint256"
        },
        {
          "internalType": "uint256",
          "name": "activeRides",
          "type": "uint256"
        },
        {
          "internalType": "uint256",
          "name": "totalEarnings",
          "type": "uint256"
        }
      ],
      "stateMutability": "view",
      "type": "function",
      "constant": true
    }
  ],
  "bytecode": "0x6080806040523461002e57600160005560018055600160025560016003556000600d55613e7090816100348239f35b600080fdfe6080604052600436101561001257600080fd5b60003560e01c806202e1e51461358a57806301c678c2146132025780630dcc2fb7146131295780630e66200a146130d857806315c56c32146130875780631d6be93c14612e4457806320187d601461289a578063292bee53146128305780633015f19b14612806578063357da7ce146125a05780634dc2b360146124785780635205f1121461237f5780635d30e84d146123195780635fde932d146122ee5780636f68f544146122615780637105382d1461223657806373c33975146121e55780637888cd1c146121995780639327b07714611f3c57806396427c9414611f105780639e3fa06b14611ed2578063a6c02cb714611bd7578063a6f07b2914611a45578063abd7a04314611a07578063b229f360146113da578063bcc601ab14611359578063c416dd0b14611168578063d057e92614611117578063d49f223514610d9f578063d5bae0e714610c8b578063dc7129741461099f578063df04320d146108d7578063e83d2462146105b3578063e9c14b1e1461048e578063f34dc39614610432578063f79e5450146102955763f88af21d146101b257600080fd5b346102905760203660031901126102905760043560005260066020526040600020805460018060a01b03600183015416916040516101fe816101f781600286016138fd565b0382613794565b61027f604051610215816101f781600388016138fd565b610271604051916102348361022d8160048a016138fd565b0384613794565b610263600660ff60058901541697015495604051998a998a5260208a015260e060408a015260e08901906136e9565b9087820360608901526136e9565b9085820360808701526136e9565b91151560a084015260c08301520390f35b600080fd5b3461029057602036600319011261029057600435600052600460205260406000208054600160a01b6001900360018301541691604051808060028401906102db916138fd565b036102e69082613794565b60405191826102f881600384016138fd565b036103039084613794565b604051928361031581600485016138fd565b036103209085613794565b604051938461033281600586016138fd565b0361033d9086613794565b6040518061034e81600687016138fd565b036103599082613794565b604051908161036b81600788016138fd565b036103769083613794565b600885015460ff1696600986015493600a87015495600b88015497600c0154986040519c8d9c8d5260208d01528b6101a06040819201528c016103b8916136e9565b8b810360608d01526103c9916136e9565b8a810360808c01526103da916136e9565b89810360a08b01526103eb916136e9565b88810360c08a01526103fc916136e9565b87810360e089015261040d916136e9565b9415156101008701526101208601526101408501526101608401526101808301520390f35b346102905760203660031901126102905760043580151580610483575b61045890613b3b565b600052600860205261047f610473600b604060002001613cae565b6040519182918261365f565b0390f35b50600254811061044f565b3461029057602036600319011261029057600435801515806105a8575b6104b490613b3b565b600081815260086020526040902060028101546001600160a01b03163303610557576007016105096040516104ed816101f781866138fd565b602081519101206104fc613b7d565b6020815191012014613b9f565b61051c61051682546138c3565b82613a14565b60166a696e5f70726f677265737360a81b0190557f1caef5aba80487f3eb64526a934f8250dd2591d249cd4f14756041c0ff93607d600080a2005b60405162461bcd60e51b815260206004820152602360248201527f4f6e6c792072696465206472697665722063616e20737461727420746865207260448201526269646560e81b6064820152608490fd5b5060025481106104ab565b34610290576105c136613993565b91903360005260209260078452604060002054926105e0841515613aea565b836000526006855260406000206001933360018060a01b03868401541603610881576002820183516001600160401b039485821161078a57819061062e8261062886546138c3565b86613a3e565b8a90601f831160011461081e57600092610813575b5050600019600383901b1c191690871b1790555b8051600383019184821161078a576106798261067385546138c3565b85613a3e565b8890601f83116001146107ab57600494939291600091836107a0575b5050600019600383901b1c191690871b1790555b0191805191821161078a5781906106c48261062886546138c3565b8690601f83116001146107275760009261071c575b5050600019600383901b1c191690831b1790555b6040519133907fbe409d0d9e1a69bac799e24eb445379ad0c9e056edc65d060e83c5cabff7a572600080a38152f35b0151905086806106d9565b90859350601f1983169185600052886000209260005b8a828210610774575050841161075b575b505050811b0190556106ed565b015160001960f88460031b161c1916905586808061074e565b838501518655899790950194938401930161073d565b634e487b7160e01b600052604160045260246000fd5b015190508a80610695565b9392918791601f19821690846000528b6000209160005b8d8282106107fd5750509683600498106107e4575b505050811b0190556106a9565b015160001960f88460031b161c191690558a80806107d7565b838a015185558c969094019392830192016107c2565b015190508a80610643565b60008581528c81208b9550929190601f198516908e5b82821061086a5750508411610851575b505050811b019055610657565b015160001960f88460031b161c191690558a8080610844565b8385015186558d979095019493840193018e610834565b60405162461bcd60e51b815260048101889052602860248201527f4f6e6c7920636c69656e742063616e20757064617465207468656972206f776e6044820152672070726f66696c6560c01b6064820152608490fd5b3461029057602080600319360112610290576004356012546108f881613d14565b9260009260005b83811061094e57858561091181613d14565b9160005b82811061092a576040518061047f868261365f565b806109386109499284613d46565b516109438287613d46565b526139ee565b610915565b6109578161369a565b90549060031b1c80600052600884528260016040600020015414610985575b50610980906139ee565b6108ff565b856109989161094361098094988a613d46565b9490610976565b6020806003193601126102905760043580151580610c80575b6109c190613b3b565b80600052600882526040600020916040516109e3816101f781600788016138fd565b8181519101206109f1613c89565b82815191012003610c3c576000906000916000600a86018054915b828110610b96575b50505015610b4357600684019384543403610afe576000808080938682526009865260046040832001600160ff1982541617905560036040832001610a5c61051682546138c3565b60126818dbdb999a5c9b595960ba1b0190556001810154825260048652600c6040832001610a8b348254613b2e565b90556002015481906001600160a01b03163415610af4575b3491f115610ae8577f6c262599b9b600d914b2baf0a565cd17a5e93d35ebd1bdfd8dfb2fda717ee69091600052600981526001604060002001549354604051908152a3005b6040513d6000823e3d90fd5b6108fc9150610aa3565b60405162461bcd60e51b815260048101839052601860248201527f496e636f7272656374207061796d656e7420616d6f756e7400000000000000006044820152606490fd5b6084906040519062461bcd60e51b82526004820152602660248201527f43616c6c6572206973206e6f7420612070617373656e676572206f662074686960448201526573207269646560d01b6064820152fd5b610ba081836136d1565b905460039190911b1c6000818152600987526040902060028101546001600160a01b03163314610bda575050610bd5906139ee565b610a0c565b925095505060ff925060049150015416610bf8576001858080610a14565b6064906040519062461bcd60e51b82526004820152601960248201527f5061796d656e7420616c726561647920636f6e6669726d6564000000000000006044820152fd5b6064906040519062461bcd60e51b82526004820152601c60248201527f52696465206d75737420626520636f6d706c65746564206669727374000000006044820152fd5b5060025481106109b8565b346102905760208060031936011261029057600435908115610d5b57600d5490600060015b83811115610d205750610cc290613d14565b9260009160015b84811115610cdf576040518061047f888261365f565b80600052600c82528260016040600020015414610d05575b610d00906139ee565b610cc9565b92610d188185610943610d00948a613d46565b939050610cf7565b80600052600c83528460016040600020015414610d46575b610d41906139ee565b610cb0565b90610d53610d41916139ee565b919050610d38565b6064906040519062461bcd60e51b82526004820152601e60248201527f52696465204944206d7573742062652067726561746572207468616e203000006044820152fd5b3461029057610dad36613993565b91909133600052602092600784526040600020546110d257600191825493610dd4856139ee565b84558460005260068652604060002092858455848401336001600160601b0360a01b8254161790556002840182516001600160401b039384821161078a578190610e228261062886546138c3565b8a90601f831160011461106f57600092611064575b5050600019600383901b1c191690871b1790555b8051600385019183821161078a578190610e698261062886546138c3565b8990601f831160011461100157600092610ff6575b5050600019600383901b1c191690861b1790555b6004830191805191821161078a578190610eb08261062886546138c3565b8790601f8311600114610f9357600092610f88575b5050600019600383901b1c191690841b1790555b600581018260ff1982541617905560064291015533600052600783528160406000205560115490600160401b82101561078a57810180601155811015610f7257819060116000527f31ecc21a745e3968a04e9570e4425bc18fa8019c68028196b546d1669c200c6801556040519033817fb815407d18c4a13f23f5714a7f46938648fb7ddc53c75387904f727c348807c3600080a38152f35b634e487b7160e01b600052603260045260246000fd5b015190508780610ec5565b90869350601f1983169185600052896000209260005b8b828210610fe05750508411610fc7575b505050811b019055610ed9565b015160001960f88460031b161c19169055878080610fba565b8385015186558a97909501949384019301610fa9565b015190508980610e7e565b90889350601f19831691856000528b6000209260005b8d82821061104e5750508411611035575b505050811b019055610e92565b015160001960f88460031b161c19169055898080611028565b8385015186558c97909501949384019301611017565b015190508a80610e37565b60008581528c81208b9550929190601f198516908e5b8282106110bb57505084116110a2575b505050811b019055610e4b565b015160001960f88460031b161c191690558a8080611095565b8385015186558d979095019493840193018e611085565b60405162461bcd60e51b815260048101859052601960248201527f436c69656e7420616c72656164792072656769737465726564000000000000006044820152606490fd5b34610290576020366003190112610290576004356010548110156102905760209060106000527f1b6847dc741a1b0cd08d278845f9d819d87b734759afb55fe2de5cb82a9ae6720154604051908152f35b346102905760208060031936011261029057600435908115158061134e575b61119090613b3b565b6000828152600882526040902060028101546001600160a01b031633036112fa57600781017f811bb47290dc5d06c2e8c789859ec3d72ae47eaad91ae49a85546d47499a83bb6040516111e7816101f781866138fd565b8481519101206a696e5f70726f677265737360a81b8560405161120981613779565b600b81520152036112b5579081611225610516600194546138c3565b60126818dbdb5c1b195d195960ba1b0190550154908160005260048152600a6040600020019182546001810180911161129f576004935560005252600b604060002001805490600019820191821161129f57557f63e5b4bf8bc6c9cf867e6cc4d53f654c1f0365d975100e04129de6383f8c4b23600080a2005b634e487b7160e01b600052601160045260246000fd5b60405162461bcd60e51b815260048101849052601760248201527f52696465206973206e6f7420696e2070726f67726573730000000000000000006044820152606490fd5b60405162461bcd60e51b815260048101839052602660248201527f4f6e6c792072696465206472697665722063616e20636f6d706c65746520746860448201526565207269646560d01b6064820152608490fd5b506002548210611187565b3461029057602036600319011261029057600435600052600a602052604060002080546001820154916113d060018060a01b03600283015416916004604051916113aa8361022d81600385016138fd565b01549260405195869586526020860152604085015260a0606085015260a08401906136e9565b9060808301520390f35b34610290576113e83661380b565b94929190913360005260056020526040600020546119c2576000549461140d866139ee565b60005585600052600460205260406000209486865560018601336001600160601b0360a01b8254161790558051906001600160401b03821161078a5781906114658261145c60028b01546138c3565b60028b01613a3e565b602090601f831160011461195057600092611945575b50508160011b916000199060031b1c19161760028601555b8051906001600160401b03821161078a5781906114c0826114b760038a01546138c3565b60038a01613a3e565b602090601f83116001146118d3576000926118c8575b50508160011b916000199060031b1c19161760038501555b8051906001600160401b03821161078a57819061151b8261151260048901546138c3565b60048901613a3e565b602090601f83116001146118565760009261184b575b50508160011b916000199060031b1c19161760048401555b805160058401916001600160401b03821161078a57819061156e8261062886546138c3565b602090601f83116001146117e5576000926117da575b50508160011b916000199060031b1c19161790555b805160068301916001600160401b03821161078a5781906115be8261062886546138c3565b602090601f831160011461177457600092611769575b50508160011b916000199060031b1c19161790555b6007810183516001600160401b03811161078a576116118161160b84546138c3565b84613a3e565b6020601f82116001146116fc579080600c9493926000969787926116f1575b50508160011b9186199060031b1c19161790555b60088101600160ff1982541617905542600982015582600a82015582600b82015501553360005260056020528060406000205560105490600160401b82101561078a576001820180601055821015610f72578060209260106000527f1b6847dc741a1b0cd08d278845f9d819d87b734759afb55fe2de5cb82a9ae67201556040519033817f03768fcb79c5ffec4cc22b1b43cb225560120424fbe39d80480e5819a5c897d5600080a38152f35b015190508780611630565b601f198216958360005260206000209660005b8181106117515750966001928492600c9796956000999a10611739575b505050811b019055611644565b0151871960f88460031b161c1916905587808061172c565b8383015189556001909801976020938401930161170f565b0151905086806115d4565b6000858152602081209350601f198516905b8181106117c257509084600195949392106117a9575b505050811b0190556115e9565b015160001960f88460031b161c1916905586808061179c565b92936020600181928786015181550195019301611786565b015190508780611584565b6000858152602081209350601f198516905b818110611833575090846001959493921061181a575b505050811b019055611599565b015160001960f88460031b161c1916905587808061180d565b929360206001819287860151815501950193016117f7565b015190508780611531565b9250600486016000526020600020906000935b601f19841685106118ad576001945083601f19811610611894575b505050811b016004840155611549565b015160001960f88460031b161c19169055878080611884565b81810151835560209485019460019093019290910190611869565b0151905088806114d6565b9250600387016000526020600020906000935b601f198416851061192a576001945083601f19811610611911575b505050811b0160038501556114ee565b015160001960f88460031b161c19169055888080611901565b818101518355602094850194600190930192909101906118e6565b01519050898061147b565b9250600288016000526020600020906000935b601f19841685106119a7576001945083601f1981161061198e575b505050811b016002860155611493565b015160001960f88460031b161c1916905589808061197e565b81810151835560209485019460019093019290910190611963565b60405162461bcd60e51b815260206004820152601960248201527f44726976657220616c72656164792072656769737465726564000000000000006044820152606490fd5b34610290576020366003190112610290576004356001600160a01b038116908190036102905760005260056020526020604060002054604051908152f35b3461029057602080600319360112610290576004359081151580611bcc575b611a6d90613b3b565b6000828152600882526040902060028101546001600160a01b03163303611b7b5760078101604051611aa3816101f781856138fd565b838151910120611ab1613b7d565b84815191012003611b27576004929181611ad0610516600194546138c3565b60126818d85b98d95b1b195960ba1b019055015460005252600b604060002001805490600019820191821161129f57557f0c23eb44b06124e00526761c3c77095fc814bb72c9be3ac1e58f0bc2ebfe4f7e600080a2005b60405162461bcd60e51b815260048101849052602660248201527f526964652063616e6e6f742062652063616e63656c6c6564206174207468697360448201526520737461676560d01b6064820152608490fd5b60405162461bcd60e51b8152600481018390526024808201527f4f6e6c792072696465206472697665722063616e2063616e63656c20746865206044820152637269646560e01b6064820152608490fd5b506002548210611a64565b346102905760a0366003190112610290576001600160401b0360043581811161029057611c089036906004016137b5565b60243582811161029057611c209036906004016137b5565b906044359060ff82168092036102905760643590336000526020946005865260406000205493611c51851515613aa6565b60025495611c5e876139ee565b6002558660005260088852604060002092878455600194878686015560028501336001600160601b0360a01b825416179055600385019080519083821161078a578190611caf8261062886546138c3565b8c908d601f8411600114611e6c5750600092611e61575b5050600019600383901b1c191690871b1790555b6004840191805191821161078a578190611cf88261062886546138c3565b8a90601f8311600114611dfe57600092611df3575b5050600019600383901b1c191690851b1790555b600582019060ff1982541617905582600682015560078101611d4661051682546138c3565b600c6561637469766560d01b019055426008820155608435600990910155601254600160401b81101561078a5784611d868284611da1940160125561369a565b90919082549060031b600019811b9283911b16911916179055565b8260005260048552600b604060002001805491820180921161129f5784927f47854699debaa81148943c9053c71212f14c1208daf63d7c1246d59f462d39b892879255604051908152a3604051908152f35b015190508a80611d0d565b60008581528c8120899550929190601f198516908e5b828210611e4a5750508411611e31575b505050811b019055611d21565b015160001960f88460031b161c191690558a8080611e24565b8385015186558b979095019493840193018e611e14565b015190508c80611cc6565b91908a9450601f1984168660005283600020936000905b828210611eb95750508411611ea0575b505050811b019055611cda565b015160001960f88460031b161c191690558c8080611e93565b8484015186558d97909501949384019390810190611e83565b34610290576020366003190112610290576004356001600160a01b038116908190036102905760005260076020526020604060002054604051908152f35b3461029057602036600319011261029057600435600052600b60205261047f6104736040600020613cae565b3461029057602080600319360112610290576004358015158061218e575b611f6390613b3b565b3360005260078252604060002054611f7c811515613aea565b816000526008918284526040600020611fd26101f7611fb860078401611fac611fa582546138c3565b1515613b3b565b604051928380926138fd565b868151910120611fc6613b7d565b87815191012014613b9f565b611fe460ff6005830154161515613be0565b600b018054909360005b828110612095575050506120646003548094612009826139ee565b60035581600052600a8752604060002082815585600182015560028101336001600160601b0360a01b8254161790556003810161204961051682546138c3565b600e6670656e64696e6760c81b019055600442910155613a83565b7f1881520d43a4abcbf6b1e33d26324b40ca34534a8d209735a9f0c50930c52c5684604051858152a3604051908152f35b61209f81876136d1565b9054600391821b1c600052600a88526040600020866001820154146120cf575b50506120ca906139ee565b611fee565b906121057f5e679716a01be890d854f2c1c5cb5336603215e65ff238044a5b11c586f61c1d926101f760405180948193016138fd565b888151910120671c995a9958dd195960c21b8960405161212481613779565b8681520152036121355787806120bf565b60405162461bcd60e51b815260048101889052602b60248201527f416c726561647920726571756573746564206f7220616363657074656420666f60448201526a722074686973207269646560a81b6064820152608490fd5b506002548110611f5a565b3461029057602036600319011261029057600435801515806121da575b6121bf90613b3b565b600052600860205261047f610473600a604060002001613cae565b5060025481106121b6565b34610290576020366003190112610290576004356012548110156102905760209060126000527fbb8a6a4669ba250d26cd7a459eca9d215f8307e33aebe50379bc5a3617ec34440154604051908152f35b3461029057600036600319011261029057600154600019810190811161129f57602090604051908152f35b34610290576020366003190112610290576004356000526009602052604060002080546001820154916122e260018060a01b036002830154169160ff6004604051926122bb846122b481600385016138fd565b0385613794565b0154169260405195869586526020860152604085015260a0606085015260a08401906136e9565b90151560808301520390f35b3461029057600036600319011261029057600054600019810190811161129f57602090604051908152f35b3461029057602036600319011261029057600435600052600c60205260c060406000208054906001810154906002810154600382015490600560ff60048501541693015493604051958652602086015260408501526060840152608083015260a0820152f35b346102905760203660031901126102905760043560005260086020526040600020805460018201549160018060a01b036002820154166124676040516123cc816101f781600388016138fd565b6007604051916123e38361022d8160048a016138fd565b61244f60ff600588015416936124416006890154936124138a61240c60405180998193016138fd565b0387613794565b600960088b01549a0154986040519c8d9c8d5260208d015260408c01526101408060608d01528b01906136e9565b9089820360808b01526136e9565b9260a088015260c087015285820360e08701526136e9565b916101008401526101208301520390f35b3461029057612486366138ad565b81151580612595575b61249890613b3b565b6000828152600860205260409020600201546001600160a01b0316330361254457600052600a60205260016040600020600381016124fc6040516124e0816101f781866138fd565b602081519101206124ef613c21565b6020815191012014613c44565b61250961051682546138c3565b6010671c995a9958dd195960c21b0190550154907f0a1ce47c0d142a211224f14ace0b39665b53f1d56cbd182f954b8e22848c69a2600080a3005b60405162461bcd60e51b8152602060048201526024808201527f4f6e6c792072696465206472697665722063616e2072656a65637420726571756044820152636573747360e01b6064820152608490fd5b50600254821061248f565b34610290576125ae366138ad565b811515806127fb575b6125c090613b3b565b816000526020906008825260406000209160018060a01b03918260028501541633036127aa576126176040516125fd816101f78160078a016138fd565b83815191012061260b613b7d565b84815191012014613b9f565b600584019061262b60ff8354161515613be0565b600052600a82526040600020936003850161266a604051612650816101f781866138fd565b85815191012061265e613c21565b86815191012014613c44565b61267761051682546138c3565b6010671858d8d95c1d195960c21b019055601354600181019490851061129f5784600a600461270e938360005260098852604060002090848255600260018c019b8c54600185015501541660028201906001600160601b0360a01b825416179055600381016126e961051682546138c3565b60126818dbdb999a5c9b595960ba1b01905501805460ff199081169091559301613a83565b81549060ff8216801561129f5760ff906000190116911617905560135491600160401b83101561078a576001830180601355831015610f7257600b927f66de8ffda797e3de9c05e8fc57b3bf0ec28a930d40b0d285d93c06501cf6a0900155825460005252612781826040600020613a83565b54907f067e1786bd0858ab9be9533ab851d1644f8a9af317edea0b985ae2708c446571600080a3005b60405162461bcd60e51b8152600481018390526024808201527f4f6e6c792072696465206472697665722063616e2061636365707420726571756044820152636573747360e01b6064820152608490fd5b5060025482106125b7565b34610290576020366003190112610290576040612824600435613de9565b82519182526020820152f35b346102905760203660031901126102905760043561284f811515613d5a565b8060005260046020526128686040600020541515613da5565b600052600460205260606040600020600a81015490600c600b8201549101549060405192835260208301526040820152f35b34610290576128a83661380b565b9294919094336000526005602052604060002054946128c8861515613aa6565b8560005260046020526040600020933360018060a01b0360018701541603612dee5780516001600160401b03811161078a5780600287019261290e8261062886546138c3565b602090601f8311600114612d8257600092612d77575b50508160011b916000199060031b1c19161790555b80516001600160401b03811161078a5780600386019261295d8261062886546138c3565b602090601f8311600114612d1157600092612d06575b50508160011b916000199060031b1c19161790555b8051906001600160401b03821161078a5781906129b5826129ac60048801546138c3565b60048801613a3e565b602090601f8311600114612c9457600092612c89575b50508160011b916000199060031b1c19161760048301555b8051906001600160401b03821161078a578190612a1082612a0760058701546138c3565b60058701613a3e565b602090601f8311600114612c1757600092612c0c575b50508160011b916000199060031b1c19161760058201555b83516001600160401b03811161078a57612a6881612a5f60068501546138c3565b60068501613a3e565b6020601f8211600114612b995781906007949596600092612b8e575b50508160011b916000199060031b1c19161760068201555b01918151926001600160401b03841161078a5783612ac060209561160b84546138c3565b8493601f8211600114612b2b579381929394600092612b20575b50508160011b916000199060031b1c19161790555b6040519033907f89a928af1f1d1d877f76a506825d8dd15d2adc60bd7b3acc19e3ff58e6a4e92a600080a360018152f35b015190508580612ada565b601f1982169483600052866000209160005b878110612b77575083600195969710612b5e575b505050811b019055612aef565b015160001960f88460031b161c19169055858080612b51565b919288600181928685015181550194019201612b3d565b015190508680612a84565b6006830160005260206000209560005b601f1984168110612bf457509582916007959697600194601f19811610612bdb575b505050811b016006820155612a9c565b015160001960f88460031b161c19169055868080612bcb565b82820151885560019097019660209283019201612ba9565b015190508680612a26565b9250600584016000526020600020906000935b601f1984168510612c6e576001945083601f19811610612c55575b505050811b016005820155612a3e565b015160001960f88460031b161c19169055868080612c45565b81810151835560209485019460019093019290910190612c2a565b0151905087806129cb565b9250600485016000526020600020906000935b601f1984168510612ceb576001945083601f19811610612cd2575b505050811b0160048301556129e3565b015160001960f88460031b161c19169055878080612cc2565b81810151835560209485019460019093019290910190612ca7565b015190508980612973565b6000858152602081209350601f198516905b818110612d5f5750908460019594939210612d46575b505050811b019055612988565b015160001960f88460031b161c19169055898080612d39565b92936020600181928786015181550195019301612d23565b015190508a80612924565b9250836000526020600020906000935b601f1984168510612dd3576001945083601f19811610612dba575b505050811b019055612939565b015160001960f88460031b161c191690558a8080612dad565b81810151835560209485019460019093019290910190612d92565b60405162461bcd60e51b815260206004820152602860248201527f4f6e6c79206472697665722063616e20757064617465207468656972206f776e6044820152672070726f66696c6560c01b6064820152608490fd5b34610290576020366003190112610290576004356060610160604051612e698161375d565b6000815260006020820152600060408201528280820152826080820152600060a0820152600060c08201528260e0820152600061010082015260006101208201528261014082015201528015158061307c575b612ec590613b3b565b600052600860205261047f6040600020612f9b600b825492600181015460018060a01b0360028301541660ff60058401541660068401549060088501549260098601549460405199612f168b61375d565b8a5260208a01526040890152604051612f36816101f78160038a016138fd565b6060890152604051612f4f816101f78160048a016138fd565b608089015260a088015260c0870152604051612f72816101f781600788016138fd565b60e0870152610100860152610120850152612f8f600a8201613cae565b61014085015201613cae565b61016082015260405191829160208352805160208401526020810151604084015260018060a01b03604082015116606084015261016061306761303961300b612ff5606086015161018060808a01526101a08901906136e9565b6080860151888203601f190160a08a01526136e9565b60ff60a08601511660c088015260c085015160e088015260e0850151601f19888303016101008901526136e9565b610100840151610120870152610120840151610140870152610140840151601f198783030184880152613729565b910151838203601f1901610180850152613729565b506002548110612ebc565b34610290576020366003190112610290576004356013548110156102905760209060136000527f66de8ffda797e3de9c05e8fc57b3bf0ec28a930d40b0d285d93c06501cf6a0900154604051908152f35b34610290576020366003190112610290576004356011548110156102905760209060116000527f31ecc21a745e3968a04e9570e4425bc18fa8019c68028196b546d1669c200c680154604051908152f35b346102905760003660031901126102905760125461314681613d14565b9060009060005b81811061318b57505061315f81613d14565b9160005b828110613178576040518061047f868261365f565b806109386131869284613d46565b613163565b6131948161369a565b90549060031b1c806000526020600881526101f76131bf6007604060002001604051928380926138fd565b818151910120906131ce613b7d565b8051910120146131e8575b506131e3906139ee565b61314d565b836131fb916109436131e3949688613d46565b92906131d9565b3461029057604036600319011261029057600435602480359060ff821680920361029057600192838310158061357f575b1561353b57806000526020906008825260406000209261325584541515613b3b565b604051613269816101f781600789016138fd565b838151910120613277613c89565b848151910120036134f85733600052600783526040600020549361329c851515613aea565b600080600a83018054915b8281106134b7575b50505015613473578680600d54905b818111156133f057506132d0906139ee565b9182600d5501968754906040519360c08501908582106001600160401b038311176133dc577f1c1638371b23fea1643a6a25c6d81f3abc6c593799034889c2aba9ac4875982a60a08c8c8c8c8c8c60058d8d8d8d6040528285528685019186835260408601908152606086019189835260808701938b85528d880195428752600052600c8a52604060002097518855519087015551600286015551600385015560ff6004850191511660ff19825416179055519101558454600052600e8252604060002061339f858254613b2e565b90558454600052600f825260406000206133b981546139ee565b9055600d54945491604051958652850152604084015260608301526080820152a1005b634e487b7160e01b60009081526041600452fd5b80919250600052600c86528489604060002001541480613462575b61342057613418906139ee565b9088916132be565b606484876040519162461bcd60e51b83528160048401528201527f596f75206861766520616c7265616479207261746564207468697320726964656044820152fd5b50866003604060002001541461340b565b60405162461bcd60e51b815260048101859052601f818401527f4f6e6c792070617373656e676572732063616e207261746520612072696465006044820152606490fd5b6134c181836136d1565b90549060031b1c60005260098852888b60406000200154146134eb576134e6906139ee565b6132a7565b50505050868880806132af565b82601e6064926040519262461bcd60e51b845260048401528201527f52696465206d75737420626520636f6d706c6574656420746f207261746500006044820152fd5b60405162461bcd60e51b815260206004820152601e818401527f526174696e67206d757374206265206265747765656e203120616e64203500006044820152606490fd5b506005831115613233565b346102905760208060031936011261029057600435906135ab821515613d5a565b600d5490600060015b8381111561362457506135c690613d14565b9260009160015b848111156135e3576040518061047f888261365f565b80600052600c82528260026040600020015414613609575b613604906139ee565b6135cd565b9261361c8185610943613604948a613d46565b9390506135fb565b80600052600c8352846002604060002001541461364a575b613645906139ee565b6135b4565b90613657613645916139ee565b91905061363c565b6020908160408183019282815285518094520193019160005b828110613686575050505090565b835185529381019392810192600101613678565b601254811015610f725760126000527fbb8a6a4669ba250d26cd7a459eca9d215f8307e33aebe50379bc5a3617ec34440190600090565b8054821015610f725760005260206000200190600090565b919082519283825260005b848110613715575050826000602080949584010152601f8019910116010190565b6020818301810151848301820152016136f4565b90815180825260208080930193019160005b828110613749575050505090565b83518552938101939281019260010161373b565b61018081019081106001600160401b0382111761078a57604052565b604081019081106001600160401b0382111761078a57604052565b90601f801991011681019081106001600160401b0382111761078a57604052565b81601f82011215610290578035906001600160401b03821161078a57604051926137e9601f8401601f191660200185613794565b8284526020838301011161029057816000926020809301838601378301015290565b9060c06003198301126102905760048035926001600160401b039384811161029057816138399184016137b5565b9360243581811161029057826138509185016137b5565b9360443582811161029057836138679186016137b5565b93606435838111610290578461387e9183016137b5565b9360843584811161029057816138959184016137b5565b9360a435908111610290576138aa92016137b5565b90565b6040906003190112610290576004359060243590565b90600182811c921680156138f3575b60208310146138dd57565b634e487b7160e01b600052602260045260246000fd5b91607f16916138d2565b906000929180549161390e836138c3565b9182825260019384811690816000146139705750600114613930575b50505050565b90919394506000526020928360002092846000945b83861061395c57505050500101903880808061392a565b805485870183015294019385908201613945565b9294505050602093945060ff191683830152151560051b0101903880808061392a565b6060600319820112610290576001600160401b039160043583811161029057826139bf916004016137b5565b9260243581811161029057836139d7916004016137b5565b92604435918211610290576138aa916004016137b5565b600019811461129f5760010190565b818110613a08575050565b600081556001016139fd565b90601f8111613a21575050565b613a3c91600052601f6020600020910160051c8101906139fd565b565b9190601f8111613a4d57505050565b613a3c926000526020600020906020601f840160051c83019310613a79575b601f0160051c01906139fd565b9091508190613a6c565b90815491600160401b83101561078a5782611d86916001613a3c950181556136d1565b15613aad57565b60405162461bcd60e51b8152602060048201526015602482015274111c9a5d995c881b9bdd081c9959da5cdd195c9959605a1b6044820152606490fd5b15613af157565b60405162461bcd60e51b815260206004820152601560248201527410db1a595b9d081b9bdd081c9959da5cdd195c9959605a1b6044820152606490fd5b9190820180921161129f57565b15613b4257565b60405162461bcd60e51b8152602060048201526013602482015272149a591948191bd95cc81b9bdd08195e1a5cdd606a1b6044820152606490fd5b60405190613b8a82613779565b600682526561637469766560d01b6020830152565b15613ba657565b60405162461bcd60e51b815260206004820152601260248201527152696465206973206e6f742061637469766560701b6044820152606490fd5b15613be757565b60405162461bcd60e51b81526020600482015260126024820152714e6f20617661696c61626c6520736561747360701b6044820152606490fd5b60405190613c2e82613779565b600782526670656e64696e6760c81b6020830152565b15613c4b57565b60405162461bcd60e51b815260206004820152601660248201527552657175657374206973206e6f742070656e64696e6760501b6044820152606490fd5b60405190613c9682613779565b600982526818dbdb5c1b195d195960ba1b6020830152565b9060405191828154918282526020928383019160005283600020936000905b828210613ce357505050613a3c92500383613794565b855484526001958601958895509381019390910190613ccd565b6001600160401b03811161078a5760051b60200190565b90613d1e82613cfd565b613d2b6040519182613794565b8281528092613d3c601f1991613cfd565b0190602036910137565b8051821015610f725760209160051b010190565b15613d6157565b606460405162461bcd60e51b815260206004820152602060248201527f447269766572204944206d7573742062652067726561746572207468616e20306044820152fd5b15613dac57565b60405162461bcd60e51b8152602060048201526015602482015274111c9a5d995c88191bd95cc81b9bdd08195e1a5cdd605a1b6044820152606490fd5b90613df5821515613d5a565b6000918083526004602052613e0f60408420541515613da5565b8252600f602052604082205415613e3657600e60205260408083205492600f602052205490565b819056fea26469706673582212205ccc25b25854ba581c4244bfa1d1c02fcf1c2fbf539127497d14fef3b4c6ef6a64736f6c63430008110033",
  "immutableReferences": {},
  "source": "// SPDX-License-Identifier: MIT\r\npragma solidity ^0.8.0;\r\n\r\ncontract ChainRideContract {\r\n    // Counter for IDs\r\n    uint256 private driverIdCounter = 1;\r\n    uint256 private clientIdCounter = 1;\r\n    uint256 private rideIdCounter = 1;\r\n    uint256 private requestIdCounter = 1;\r\n    \r\n    // Structs\r\n    struct Driver {\r\n        uint256 id;\r\n        address walletAddress;\r\n        string name;\r\n        string email;\r\n        string phone;\r\n        string carModel;\r\n        string licensePlate;\r\n        string carColor;\r\n        bool isActive;\r\n        uint256 timestamp;\r\n        uint256 completedRides;   // Number of completed rides\r\n        uint256 activeRides;      // Number of active rides\r\n        uint256 totalEarnings;    // Total earnings in wei\r\n    }\r\n    \r\n    struct Client {\r\n        uint256 id;\r\n        address walletAddress;\r\n        string name;\r\n        string email;\r\n        string phone;\r\n        bool isActive;\r\n        uint256 timestamp;\r\n    }\r\n    \r\n    struct RideRequest {\r\n        uint256 id;\r\n        uint256 clientId;\r\n        address clientWalletAddress;\r\n        string status; // \"pending\", \"accepted\", \"rejected\"\r\n        uint256 requestedAt;\r\n    }\r\n    \r\n    struct Ride {\r\n        uint256 id;\r\n        uint256 driverId;\r\n        address driverWalletAddress;\r\n        string startLocation;\r\n        string destination;\r\n        uint8 availableSeats;\r\n        uint256 price; // In wei per passenger\r\n        string status; // \"active\", \"in_progress\", \"completed\", \"cancelled\"\r\n        uint256 createdAt;\r\n        uint256 departureTime; // Unix timestamp\r\n        uint256[] passengerIds;\r\n        uint256[] requestIds;\r\n    }\r\n    \r\n    struct Passenger {\r\n        uint256 id;\r\n        uint256 clientId;\r\n        address clientWalletAddress;\r\n        string status; // \"confirmed\", \"completed\"\r\n        bool paid;\r\n    }\r\n    \r\n    // New struct to return ride details (fixing stack too deep)\r\n    struct RideDetails {\r\n        uint256 id;\r\n        uint256 driverId;\r\n        address driverWalletAddress;\r\n        string startLocation;\r\n        string destination;\r\n        uint8 availableSeats;\r\n        uint256 price;\r\n        string status;\r\n        uint256 createdAt;\r\n        uint256 departureTime;\r\n        uint256[] passengerIds;\r\n        uint256[] requestIds;\r\n    }\r\n    \r\n    // Add a new struct for rating\r\n    struct Rating {\r\n        uint256 id;\r\n        uint256 rideId;\r\n        uint256 driverId;\r\n        uint256 clientId;\r\n        uint8 score; // Rating score from 1-5\r\n        uint256 timestamp;\r\n    }\r\n    \r\n    // Mappings\r\n    mapping(uint256 => Driver) public drivers;\r\n    mapping(address => uint256) public driverAddressToId;\r\n    mapping(uint256 => Client) public clients;\r\n    mapping(address => uint256) public clientAddressToId;\r\n    mapping(uint256 => Ride) public rides;\r\n    mapping(uint256 => Passenger) public passengers;\r\n    mapping(uint256 => RideRequest) public rideRequests;\r\n    \r\n    // Add new mapping to track rides per client\r\n    mapping(uint256 => uint256[]) private clientRides; // clientId => rideIds\r\n    \r\n    // Add mapping for ratings\r\n    mapping(uint256 => Rating) public ratings;\r\n    uint256 private ratingCount = 0;\r\n    \r\n    // Add driver rating tracking\r\n    mapping(uint256 => uint256) private driverTotalRatings; // Total sum of all ratings\r\n    mapping(uint256 => uint256) private driverRatingCount; // Count of ratings received\r\n    \r\n    // Arrays to keep track of all entities\r\n    uint256[] public allDriverIds;\r\n    uint256[] public allClientIds;\r\n    uint256[] public allRideIds;\r\n    uint256[] public allPassengerIds;\r\n    \r\n    // Events\r\n    event DriverRegistered(uint256 indexed driverId, address indexed walletAddress);\r\n    event DriverUpdated(uint256 indexed driverId, address indexed walletAddress);\r\n    event ClientRegistered(uint256 indexed clientId, address indexed walletAddress);\r\n    event ClientUpdated(uint256 indexed clientId, address indexed walletAddress);\r\n    event RideCreated(uint256 indexed rideId, uint256 indexed driverId, uint256 price);\r\n    event RideRequested(uint256 indexed rideId, uint256 indexed clientId, uint256 requestId);\r\n    event RideRequestAccepted(uint256 indexed rideId, uint256 indexed clientId);\r\n    event RideRequestRejected(uint256 indexed rideId, uint256 indexed clientId);\r\n    event RideStarted(uint256 indexed rideId);\r\n    event RideCompleted(uint256 indexed rideId);\r\n    event RideCancelled(uint256 indexed rideId);\r\n    event PaymentReceived(uint256 indexed rideId, uint256 indexed clientId, uint256 amount);\r\n    // New event for ride confirmation by a passenger\r\n    event RideConfirmed(uint256 indexed rideId, uint256 indexed clientId, uint256 amount);\r\n    event RatingSubmitted(uint256 ratingId, uint256 rideId, uint256 driverId, uint256 clientId, uint8 score);\r\n    \r\n    // Modifiers\r\n    modifier onlyDriver(uint256 _driverId) {\r\n        require(driverAddressToId[msg.sender] == _driverId, \"Not authorized\");\r\n        _;\r\n    }\r\n    \r\n    modifier rideExists(uint256 _rideId) {\r\n        require(_rideId > 0 && _rideId < rideIdCounter, \"Ride does not exist\");\r\n        _;\r\n    }\r\n    \r\n    // Driver functions\r\n    function registerDriver(\r\n        string memory _name,\r\n        string memory _email,\r\n        string memory _phone,\r\n        string memory _carModel,\r\n        string memory _licensePlate,\r\n        string memory _carColor\r\n    ) public returns (uint256) {\r\n        require(driverAddressToId[msg.sender] == 0, \"Driver already registered\");\r\n        \r\n        uint256 newDriverId = driverIdCounter++;\r\n        Driver storage newDriver = drivers[newDriverId];\r\n        newDriver.id = newDriverId;\r\n        newDriver.walletAddress = msg.sender;\r\n        newDriver.name = _name;\r\n        newDriver.email = _email;\r\n        newDriver.phone = _phone;\r\n        newDriver.carModel = _carModel;\r\n        newDriver.licensePlate = _licensePlate;\r\n        newDriver.carColor = _carColor;\r\n        newDriver.isActive = true;\r\n        newDriver.timestamp = block.timestamp;\r\n        newDriver.completedRides = 0;\r\n        newDriver.activeRides = 0;\r\n        newDriver.totalEarnings = 0;\r\n        \r\n        driverAddressToId[msg.sender] = newDriverId;\r\n        allDriverIds.push(newDriverId);\r\n        \r\n        emit DriverRegistered(newDriverId, msg.sender);\r\n        return newDriverId;\r\n    }\r\n    \r\n    // Update driver information\r\n    function updateDriver(\r\n        string memory _name,\r\n        string memory _email,\r\n        string memory _phone,\r\n        string memory _carModel,\r\n        string memory _licensePlate,\r\n        string memory _carColor\r\n    ) public returns (bool) {\r\n        uint256 driverId = driverAddressToId[msg.sender];\r\n        require(driverId > 0, \"Driver not registered\");\r\n        \r\n        Driver storage driver = drivers[driverId];\r\n        require(driver.walletAddress == msg.sender, \"Only driver can update their own profile\");\r\n        \r\n        driver.name = _name;\r\n        driver.email = _email;\r\n        driver.phone = _phone;\r\n        driver.carModel = _carModel;\r\n        driver.licensePlate = _licensePlate;\r\n        driver.carColor = _carColor;\r\n        \r\n        emit DriverUpdated(driverId, msg.sender);\r\n        \r\n        return true;\r\n    }\r\n    \r\n    // Client functions\r\n    function registerClient(\r\n        string memory _name,\r\n        string memory _email,\r\n        string memory _phone\r\n    ) public returns (uint256) {\r\n        require(clientAddressToId[msg.sender] == 0, \"Client already registered\");\r\n        \r\n        uint256 newClientId = clientIdCounter++;\r\n        Client storage newClient = clients[newClientId];\r\n        newClient.id = newClientId;\r\n        newClient.walletAddress = msg.sender;\r\n        newClient.name = _name;\r\n        newClient.email = _email;\r\n        newClient.phone = _phone;\r\n        newClient.isActive = true;\r\n        newClient.timestamp = block.timestamp;\r\n        \r\n        clientAddressToId[msg.sender] = newClientId;\r\n        allClientIds.push(newClientId);\r\n        \r\n        emit ClientRegistered(newClientId, msg.sender);\r\n        return newClientId;\r\n    }\r\n    \r\n    // Update client information\r\n    function updateClient(\r\n        string memory _name,\r\n        string memory _email,\r\n        string memory _phone\r\n    ) public returns (bool) {\r\n        uint256 clientId = clientAddressToId[msg.sender];\r\n        require(clientId > 0, \"Client not registered\");\r\n        \r\n        Client storage client = clients[clientId];\r\n        require(client.walletAddress == msg.sender, \"Only client can update their own profile\");\r\n        \r\n        client.name = _name;\r\n        client.email = _email;\r\n        client.phone = _phone;\r\n        \r\n        // Consider adding a ClientUpdated event here\r\n        emit ClientUpdated(clientId, msg.sender);\r\n        \r\n        return true;\r\n    }\r\n    \r\n    // Ride functions\r\n    function createRide(\r\n        string memory _startLocation,\r\n        string memory _destination,\r\n        uint8 _availableSeats,\r\n        uint256 _price,\r\n        uint256 _departureTime\r\n    ) public returns (uint256) {\r\n        uint256 driverId = driverAddressToId[msg.sender];\r\n        require(driverId > 0, \"Driver not registered\");\r\n        \r\n        uint256 newRideId = rideIdCounter++;\r\n        Ride storage newRide = rides[newRideId];\r\n        newRide.id = newRideId;\r\n        newRide.driverId = driverId;\r\n        newRide.driverWalletAddress = msg.sender;\r\n        newRide.startLocation = _startLocation;\r\n        newRide.destination = _destination;\r\n        newRide.availableSeats = _availableSeats;\r\n        newRide.price = _price;\r\n        newRide.status = \"active\";\r\n        newRide.createdAt = block.timestamp;\r\n        newRide.departureTime = _departureTime;\r\n        \r\n        allRideIds.push(newRideId);\r\n        \r\n        // Increment active rides count for the driver\r\n        drivers[driverId].activeRides += 1;\r\n        \r\n        emit RideCreated(newRideId, driverId, _price);\r\n        return newRideId;\r\n    }\r\n    \r\n    function requestRide(uint256 _rideId) public rideExists(_rideId) returns (uint256) {\r\n        uint256 clientId = clientAddressToId[msg.sender];\r\n        require(clientId > 0, \"Client not registered\");\r\n        \r\n        Ride storage ride = rides[_rideId];\r\n        require(bytes(ride.status).length > 0, \"Ride does not exist\");\r\n        require(keccak256(bytes(ride.status)) == keccak256(bytes(\"active\")), \"Ride is not active\");\r\n        require(ride.availableSeats > 0, \"No available seats\");\r\n        \r\n        // Check if client has already requested this ride\r\n        for (uint i = 0; i < ride.requestIds.length; i++) {\r\n            RideRequest storage existingRequest = rideRequests[ride.requestIds[i]];\r\n            if (existingRequest.clientId == clientId) {\r\n                require(\r\n                    keccak256(bytes(existingRequest.status)) == keccak256(bytes(\"rejected\")),\r\n                    \"Already requested or accepted for this ride\"\r\n                );\r\n            }\r\n        }\r\n        \r\n        // Create new request\r\n        uint256 newRequestId = requestIdCounter++;\r\n        RideRequest storage newRequest = rideRequests[newRequestId];\r\n        newRequest.id = newRequestId;\r\n        newRequest.clientId = clientId;\r\n        newRequest.clientWalletAddress = msg.sender;\r\n        newRequest.status = \"pending\";\r\n        newRequest.requestedAt = block.timestamp;\r\n        \r\n        ride.requestIds.push(newRequestId);\r\n        \r\n        emit RideRequested(_rideId, clientId, newRequestId);\r\n        return newRequestId;\r\n    }\r\n    \r\n    function acceptRideRequest(uint256 _rideId, uint256 _requestId) public rideExists(_rideId) {\r\n        Ride storage ride = rides[_rideId];\r\n        require(msg.sender == ride.driverWalletAddress, \"Only ride driver can accept requests\");\r\n        require(keccak256(bytes(ride.status)) == keccak256(bytes(\"active\")), \"Ride is not active\");\r\n        require(ride.availableSeats > 0, \"No available seats\");\r\n        \r\n        RideRequest storage request = rideRequests[_requestId];\r\n        require(keccak256(bytes(request.status)) == keccak256(bytes(\"pending\")), \"Request is not pending\");\r\n        \r\n        // Update request status\r\n        request.status = \"accepted\";\r\n        \r\n        // Create passenger\r\n        uint256 newPassengerId = allPassengerIds.length + 1;\r\n        Passenger storage newPassenger = passengers[newPassengerId];\r\n        newPassenger.id = newPassengerId;\r\n        newPassenger.clientId = request.clientId;\r\n        newPassenger.clientWalletAddress = request.clientWalletAddress;\r\n        newPassenger.status = \"confirmed\";\r\n        newPassenger.paid = false;\r\n        \r\n        ride.passengerIds.push(newPassengerId);\r\n        ride.availableSeats--;\r\n        allPassengerIds.push(newPassengerId);\r\n        \r\n        // Add this ride to the client's rides mapping\r\n        clientRides[request.clientId].push(_rideId);\r\n        \r\n        emit RideRequestAccepted(_rideId, request.clientId);\r\n    }\r\n    \r\n    function rejectRideRequest(uint256 _rideId, uint256 _requestId) public rideExists(_rideId) {\r\n        Ride storage ride = rides[_rideId];\r\n        require(msg.sender == ride.driverWalletAddress, \"Only ride driver can reject requests\");\r\n        \r\n        RideRequest storage request = rideRequests[_requestId];\r\n        require(keccak256(bytes(request.status)) == keccak256(bytes(\"pending\")), \"Request is not pending\");\r\n        \r\n        // Update request status\r\n        request.status = \"rejected\";\r\n        \r\n        emit RideRequestRejected(_rideId, request.clientId);\r\n    }\r\n    \r\n    function startRide(uint256 _rideId) public rideExists(_rideId) {\r\n        Ride storage ride = rides[_rideId];\r\n        require(msg.sender == ride.driverWalletAddress, \"Only ride driver can start the ride\");\r\n        require(keccak256(bytes(ride.status)) == keccak256(bytes(\"active\")), \"Ride is not active\");\r\n        \r\n        ride.status = \"in_progress\";\r\n        \r\n        emit RideStarted(_rideId);\r\n    }\r\n    \r\n    // Modified completeRide: Marks the ride as \"completed\"\r\n    // and the actual fund transfer is handled in confirmRide.\r\n    function completeRide(uint256 _rideId) public rideExists(_rideId) {\r\n        Ride storage ride = rides[_rideId];\r\n        require(msg.sender == ride.driverWalletAddress, \"Only ride driver can complete the ride\");\r\n        require(keccak256(bytes(ride.status)) == keccak256(bytes(\"in_progress\")), \"Ride is not in progress\");\r\n        \r\n        ride.status = \"completed\";\r\n        \r\n        // Update driver statistics\r\n        uint256 driverId = ride.driverId;\r\n        drivers[driverId].completedRides += 1;\r\n        drivers[driverId].activeRides -= 1;\r\n        \r\n        emit RideCompleted(_rideId);\r\n    }\r\n    \r\n    // Confirm ride completion by a passenger.\r\n    // The passenger sends the exact ride price; upon confirmation,\r\n    // the funds are transferred to the driver.\r\n    function confirmRide(uint256 _rideId) public payable rideExists(_rideId) {\r\n        Ride storage ride = rides[_rideId];\r\n        require(keccak256(bytes(ride.status)) == keccak256(bytes(\"completed\")), \"Ride must be completed first\");\r\n        \r\n        // Verify that the sender is a passenger for this ride\r\n        bool isPassenger = false;\r\n        uint256 passengerIdFound;\r\n        for (uint i = 0; i < ride.passengerIds.length; i++) {\r\n            uint256 pid = ride.passengerIds[i];\r\n            Passenger storage passenger = passengers[pid];\r\n            if (passenger.clientWalletAddress == msg.sender) {\r\n                require(!passenger.paid, \"Payment already confirmed\");\r\n                isPassenger = true;\r\n                passengerIdFound = pid;\r\n                break;\r\n            }\r\n        }\r\n        require(isPassenger, \"Caller is not a passenger of this ride\");\r\n        \r\n        // Ensure the correct payment amount is sent (price per passenger)\r\n        require(msg.value == ride.price, \"Incorrect payment amount\");\r\n        \r\n        // Mark the passenger as having confirmed payment\r\n        passengers[passengerIdFound].paid = true;\r\n        passengers[passengerIdFound].status = \"confirmed\";\r\n        \r\n        // Update driver's total earnings\r\n        drivers[ride.driverId].totalEarnings += msg.value;\r\n        \r\n        // Transfer funds to the driver's wallet\r\n        payable(ride.driverWalletAddress).transfer(msg.value);\r\n        \r\n        emit RideConfirmed(_rideId, passengers[passengerIdFound].clientId, ride.price);\r\n    }\r\n    \r\n    // New function: Get detailed ride information as a single struct to avoid stack too deep error.\r\n    function getRideDetails(uint256 _rideId) public view rideExists(_rideId) returns (RideDetails memory) {\r\n        Ride storage ride = rides[_rideId];\r\n        RideDetails memory details = RideDetails({\r\n            id: ride.id,\r\n            driverId: ride.driverId,\r\n            driverWalletAddress: ride.driverWalletAddress,\r\n            startLocation: ride.startLocation,\r\n            destination: ride.destination,\r\n            availableSeats: ride.availableSeats,\r\n            price: ride.price,\r\n            status: ride.status,\r\n            createdAt: ride.createdAt,\r\n            departureTime: ride.departureTime,\r\n            passengerIds: ride.passengerIds,\r\n            requestIds: ride.requestIds\r\n        });\r\n        return details;\r\n    }\r\n    \r\n    function cancelRide(uint256 _rideId) public rideExists(_rideId) {\r\n        Ride storage ride = rides[_rideId];\r\n        require(msg.sender == ride.driverWalletAddress, \"Only ride driver can cancel the ride\");\r\n        require(keccak256(bytes(ride.status)) == keccak256(bytes(\"active\")), \"Ride cannot be cancelled at this stage\");\r\n        \r\n        ride.status = \"cancelled\";\r\n        \r\n        // Decrement active rides for the driver\r\n        drivers[ride.driverId].activeRides -= 1;\r\n        \r\n        emit RideCancelled(_rideId);\r\n    }\r\n    \r\n    // Getter functions\r\n    function getActiveRides() public view returns (uint256[] memory) {\r\n        uint256[] memory activeRideIds = new uint256[](allRideIds.length);\r\n        uint256 count = 0;\r\n        \r\n        for (uint i = 0; i < allRideIds.length; i++) {\r\n            uint256 rideId = allRideIds[i];\r\n            if (keccak256(bytes(rides[rideId].status)) == keccak256(bytes(\"active\"))) {\r\n                activeRideIds[count] = rideId;\r\n                count++;\r\n            }\r\n        }\r\n        \r\n        uint256[] memory result = new uint256[](count);\r\n        for (uint i = 0; i < count; i++) {\r\n            result[i] = activeRideIds[i];\r\n        }\r\n        \r\n        return result;\r\n    }\r\n    \r\n    function getDriverRides(uint256 _driverId) public view returns (uint256[] memory) {\r\n        uint256[] memory driverRideIds = new uint256[](allRideIds.length);\r\n        uint256 count = 0;\r\n        \r\n        for (uint i = 0; i < allRideIds.length; i++) {\r\n            uint256 rideId = allRideIds[i];\r\n            if (rides[rideId].driverId == _driverId) {\r\n                driverRideIds[count] = rideId;\r\n                count++;\r\n            }\r\n        }\r\n        \r\n        uint256[] memory result = new uint256[](count);\r\n        for (uint i = 0; i < count; i++) {\r\n            result[i] = driverRideIds[i];\r\n        }\r\n        \r\n        return result;\r\n    }\r\n    \r\n    function getRideRequests(uint256 _rideId) public view rideExists(_rideId) returns (uint256[] memory) {\r\n        return rides[_rideId].requestIds;\r\n    }\r\n    \r\n    function getRidePassengers(uint256 _rideId) public view rideExists(_rideId) returns (uint256[] memory) {\r\n        return rides[_rideId].passengerIds;\r\n    }\r\n    \r\n    // Add function to get all rides for a client\r\n    function getClientRides(uint256 _clientId) public view returns (uint256[] memory) {\r\n        return clientRides[_clientId];\r\n    }\r\n    \r\n    function getTotalDrivers() public view returns (uint256) {\r\n        return driverIdCounter - 1;\r\n    }\r\n    \r\n    function getTotalClients() public view returns (uint256) {\r\n        return clientIdCounter - 1;\r\n    }\r\n    \r\n    // Add the rating function\r\n    function rateDriver(uint256 _rideId, uint8 _score) public {\r\n        // Validate the score is between 1 and 5\r\n        require(_score >= 1 && _score <= 5, \"Rating must be between 1 and 5\");\r\n        \r\n        // Get the ride details\r\n        Ride storage ride = rides[_rideId];\r\n        require(ride.id > 0, \"Ride does not exist\");\r\n        require(keccak256(bytes(ride.status)) == keccak256(bytes(\"completed\")), \"Ride must be completed to rate\");\r\n        \r\n        // Get the client ID\r\n        uint256 clientId = clientAddressToId[msg.sender];\r\n        require(clientId > 0, \"Client not registered\");\r\n        \r\n        // Check if client was a passenger on this ride\r\n        bool isPassenger = false;\r\n        for (uint256 i = 0; i < ride.passengerIds.length; i++) {\r\n            Passenger storage passenger = passengers[ride.passengerIds[i]];\r\n            if (passenger.clientId == clientId) {\r\n                isPassenger = true;\r\n                break;\r\n            }\r\n        }\r\n        require(isPassenger, \"Only passengers can rate a ride\");\r\n        \r\n        // Check if client has already rated this ride\r\n        for (uint256 i = 1; i <= ratingCount; i++) {\r\n            if (ratings[i].rideId == _rideId && ratings[i].clientId == clientId) {\r\n                revert(\"You have already rated this ride\");\r\n            }\r\n        }\r\n        \r\n        // Create a new rating\r\n        ratingCount++;\r\n        ratings[ratingCount] = Rating({\r\n            id: ratingCount,\r\n            rideId: _rideId,\r\n            driverId: ride.driverId,\r\n            clientId: clientId,\r\n            score: _score,\r\n            timestamp: block.timestamp\r\n        });\r\n        \r\n        // Update driver's total ratings and count\r\n        driverTotalRatings[ride.driverId] += _score;\r\n        driverRatingCount[ride.driverId]++;\r\n        \r\n        // Emit event\r\n        emit RatingSubmitted(ratingCount, _rideId, ride.driverId, clientId, _score);\r\n    }\r\n    \r\n    // Get average rating for a driver\r\n    function getDriverRating(uint256 _driverId) public view returns (uint256, uint256) {\r\n        require(_driverId > 0, \"Driver ID must be greater than 0\");\r\n        require(drivers[_driverId].id > 0, \"Driver does not exist\");\r\n        \r\n        // If no ratings, return 0\r\n        if (driverRatingCount[_driverId] == 0) {\r\n            return (0, 0);\r\n        }\r\n        \r\n        // Return average rating and count\r\n        return (driverTotalRatings[_driverId], driverRatingCount[_driverId]);\r\n    }\r\n    \r\n    // Get all ratings for a specific driver\r\n    function getDriverRatings(uint256 _driverId) public view returns (uint256[] memory) {\r\n        require(_driverId > 0, \"Driver ID must be greater than 0\");\r\n        \r\n        // Count how many ratings this driver has\r\n        uint256 count = 0;\r\n        for (uint256 i = 1; i <= ratingCount; i++) {\r\n            if (ratings[i].driverId == _driverId) {\r\n                count++;\r\n            }\r\n        }\r\n        \r\n        // Create array of the appropriate size\r\n        uint256[] memory driverRatingIds = new uint256[](count);\r\n        \r\n        // Fill the array\r\n        uint256 index = 0;\r\n        for (uint256 i = 1; i <= ratingCount; i++) {\r\n            if (ratings[i].driverId == _driverId) {\r\n                driverRatingIds[index] = i;\r\n                index++;\r\n            }\r\n        }\r\n        \r\n        return driverRatingIds;\r\n    }\r\n    \r\n    // Get all ratings for a specific ride\r\n    function getRideRatings(uint256 _rideId) public view returns (uint256[] memory) {\r\n        require(_rideId > 0, \"Ride ID must be greater than 0\");\r\n        \r\n        // Count how many ratings this ride has\r\n        uint256 count = 0;\r\n        for (uint256 i = 1; i <= ratingCount; i++) {\r\n            if (ratings[i].rideId == _rideId) {\r\n                count++;\r\n            }\r\n        }\r\n        \r\n        // Create array of the appropriate size\r\n        uint256[] memory rideRatingIds = new uint256[](count);\r\n        \r\n        // Fill the array\r\n        uint256 index = 0;\r\n        for (uint256 i = 1; i <= ratingCount; i++) {\r\n            if (ratings[i].rideId == _rideId) {\r\n                rideRatingIds[index] = i;\r\n                index++;\r\n            }\r\n        }\r\n        \r\n        return rideRatingIds;\r\n    }\r\n    \r\n    // New function to get driver statistics\r\n    function getDriverStats(uint256 _driverId) public view returns (uint256 completedRides, uint256 activeRides, uint256 totalEarnings) {\r\n        require(_driverId > 0, \"Driver ID must be greater than 0\");\r\n        require(drivers[_driverId].id > 0, \"Driver does not exist\");\r\n        \r\n        Driver storage driver = drivers[_driverId];\r\n        return (driver.completedRides, driver.activeRides, driver.totalEarnings);\r\n    }\r\n}\r\n",
  "sourcePath": "C:\\Users\\user\\Desktop\\major_project\\smartContract\\contracts\\ChainRideContract.sol",
  "compiler": {
    "name": "solc",
    "version": "0.8.17+commit.8df45f5f.Emscripten.clang"
  },
  "schemaVersion": "3.4.16",
  "updatedAt": "2025-04-25T10:35:09.419Z",
  "networkType": "ethereum",
  "devdoc": {
    "kind": "dev",
    "methods": {},
    "version": 1
  },
  "userdoc": {
    "kind": "user",
    "methods": {},
    "version": 1
  }
}